S01700004763634170706C69636174696F6E312E737265635B
S11300000C9434000C9451000C9451000C94510045
S11300100C9451000C9451000C9451000C949506CE
S11300200C9451000C9451000C9451000C94510008
S11300300C9451000C9451000C9451000C945100F8
S11300400C9451000C9451000C9451000C945100E8
S11300500C945100B603BB03BF03C403C803CD0310
S1130060D103D603DA03DF0311241FBECFE5D8E0A2
S1130070DEBFCDBF10E0A0E6B0E0E8E2F5E102C0EB
S113008005900D92A83AB107D9F725E0A8EAB0E0A7
S113009001C01D92A630B207E1F70E9403050C943B
S11300A0920A0C94000087B18F7787B987B1806476
S11300B087B987B18F7D87B986B1846086B986B1E7
S11300C0826086B986B18E7F86B986B1806886B92A
S11300D00895CF93DF93EB0197B1907E97B997B1D1
S11300E0892B87B986B1806486B981E090E00E944B
S11300F0BC0986B1806186B984B195B1998388833E
S1130100DF91CF910895843008F087C0683008F0FB
S113011086C0423008F085C0813031F138F0823039
S113012009F440C0833009F45BC07DC0442379F0F6
S1130130413009F07AC02BB381E090E002C0880F0F
S1130140991F6A95E2F7822B8BBB80E008952BB34D
S113015081E090E002C0880F991F6A95E2F78095CC
S113016082238BBB80E00895442379F0413009F069
S11301705EC028B381E090E002C0880F991F6A95A1
S1130180E2F7822B88BB80E0089528B381E090E0F9
S113019002C0880F991F6A95E2F78095822388BB75
S11301A080E00895442379F0413009F042C025B33A
S11301B081E090E002C0880F991F6A95E2F7822BD4
S11301C085BB80E0089525B381E090E002C0880FEC
S11301D0991F6A95E2F78095822385BB80E0089594
S11301E0442371F0413039F522B381E090E002C03C
S11301F0880F991F6A95E2F7822B82BB80E00895ED
S113020022B381E090E002C0880F991F6A95E2F75B
S11302108095822382BB80E0089581E0089581E087
S1130220089581E0089580E0089580E0089580E0D5
S1130230089580E0089580E00895843008F057C060
S1130240683008F056C04115510509F454C0813096
S1130250C1F028F0823039F18330B9F14EC089B34E
S113026090E002C0959587956A95E2F780FF05C0F6
S113027081E0FA01808380E00895FA01108280E031
S1130280089586B390E002C0959587956A95E2F744
S113029080FF05C081E0FA01808380E00895FA01BF
S11302A0108280E0089583B390E002C0959587950D
S11302B06A95E2F780FF05C081E0FA01808380E05F
S11302C00895FA01108280E0089580B390E002C09E
S11302D0959587956A95E2F780FF05C081E0FA015C
S11302E0808380E00895FA01108280E0089581E01F
S11302F0089581E0089581E0089580E008958430B0
S1130300B0F46623B4F0813049F028F0823049F02B
S1130310833051F010C06BBB80E0089568BB80E06F
S1130320089565BB80E0089562BB80E0089581E094
S1130330089581E0089580E0089586E08ABB8FEFF8
S113034087BB9FE094BB91BB1BBA18BA15BA82BB9A
S11303500895CF93DF93EC010E9496082091A800A2
S11303603091A900C9018C0F9D1F883E43E094077A
S113037058F42817390758F4E901C655DF4F90930C
S1130380A9008093A80005C0C0E0D0E002C0C0E08E
S1130390D0E00E944609CE01DF91CF9108950895DF
S11303A08F929F92AF92BF92CF92DF92EF92FF9281
S11303B00F931F93CF93DF931F92CDB7DEB70097B0
S11303C009F44CC05C018FEFF5018083912C40C08F
S11303D0C92CD12CF601EE59FF4F808040E0682DE6
S11303E083E00E94830010E02BC0E12EF12CF70182
S11303F0EA59FF4F0081AE014F5F5F4F602F83E0EA
S11304000E941D01898181111AC09701220F331F97
S1130410220F331F26593F4FF901EC0DFD1D80813A
S1130420F501808307C0AE014F5F5F4F602F83E00B
S11304300E941D0189818823B1F380E010C01F5FF1
S1130440143098F241E0682D83E00E948300939475
S1130450F3E0F91508F0BCCF80E001C081E00F9013
S1130460DF91CF911F910F91FF90EF90DF90CF908C
S1130470BF90AF909F908F900895CF93C82F40E086
S113048060E082E00E94830040E061E082E00E943C
S1130490830041E062E082E00E9483006C2F81E0EF
S11304A00E947F0140E062E082E00E948300CF91DD
S11304B0089541E062E082E00E9483000895CF93B2
S11304C0C82F41E060E082E00E94830040E061E0E8
S11304D082E00E94830041E062E082E00E948300A7
S11304E06C2F81E00E947F0140E062E082E00E9484
S11304F08300CF91089541E062E082E00E9483008E
S113050008950F931F93CF93DF93EC018B01809198
S11305109204FE01E80FF11D8081882339F00E94C6
S11305205F02809192048F5F809392048091920481
S1130530C80FD11D8881811105C01092920481E0F9
S1130540F8018083DF91CF911F910F910895CF938C
S1130550DF93AC01C0E0D0E030C0CE01880F991F1A
S1130560CC0FDD1FCC0FDD1FCC0FDD1FC80FD91F33
S11305709A01ADECBCEC0E946D0A96958795969510
S11305808795969587959C01220F331F880F991F95
S1130590880F991F880F991F820F931F9A01281B98
S11305A0390BC20FD31F9A010E946D0AAC015695F4
S11305B0479556954795569547954115510569F6C2
S11305C02FC09E01ADECBCEC0E946D0A96958795F8
S11305D096958795969587959C01220F331F880FD2
S11305E0991F880F991F880F991F820F931F9E01CF
S11305F0281B390BC901805D0E945F0281E090E0F5
S11306000E94BC090E947B029E01ADECBCEC0E94DE
S11306106D0AEC01D695C795D695C795D695C7951D
S1130620209779F6DF91CF910895FC010396928388
S113063081832FEF3FEF34832383968385839087D1
S1130640878310820895FC01118610860895CF9344
S1130650DF93FC01DB0121813281E9018A819B81E5
S113066013969C938E9312978181928115969C93F5
S11306708E9314978A819B81EC017D836C83E901BD
S11306807B836A83728361831996FC93EE93189734
S113069080818F5F8083DF91CF910895CF93DF9323
S11306A0EB01488159814F3F2FEF520731F4DC01B0
S11306B01796ED91FC9118970DC0FC01339603C079
S11306C00280F381E02DA281B3812D913C914217E8
S11306D05307B0F7A281B381BB83AA831596DC9339
S11306E0CE931497FD83EC83D383C2839987888741
S11306F0FC0120812F5F2083DF91CF910895FC01BD
S1130700A281B3818481958115969C938E931497CD
S1130710A481B5818281938113969C938E931297C1
S1130720A085B18511968D919C911297E817F907D0
S113073031F48481958112969C938E93119711863E
S113074010868C9181508C930895D0E0C0E0809104
S1130750A00481113AC08C2F90E08A30910508F0F2
S113076059C0FC01E65DFF4F0C94670A82E00E94C9
S11307703D02C1E04FC00E945902C2E04BC088E371
S11307800E943D02C3E046C00E945902C4E042C038
S11307908CE00E943D02C5E03DC00E945902C6E0C3
S11307A039C081E00E943D02C7E034C00E94590272
S11307B0C8E030C086E00E943D02C9E02BC00E9420
S11307C0590281E08093A00425C0813019F5DD230E
S11307D019F0D130C1F01EC061EA74E08AE790E0FC
S11307E00E9481028091A104813089F480919C044B
S11307F090919D04009769F022E02093A1040E9447
S11308002008D1E007C00E947B02D0E003C0D1E001
S113081001C0D1E08EE190E00E94BC0998CFC0E015
S11308208091A104823009F088C0809199048430B9
S113083060F588E994E00E94D001809198048F3F8C
S1130840C1F3A1F00E945F0281E090E00E94BC0924
S11308500E947B0280919904E82FF0E0EC56FB4F54
S11308609091980490838F5F809399048091990468
S1130870843009F062C081E00E943D0281E090E092
S11308800E94BC090E94590258C08091930484308C
S113089088F5282F30E0F901EC56FB4F4081F9012F
S11308A0E156FF4F9081491709F1CC2319F0C1306B
S11308B0C9F043C061EA74E085E890E00E948102D7
S11308C08091A104813051F40E943D0281E090E0C6
S11308D00E94BC090E9459021092990481E090E0A0
S11308E00E94BC090E947B02C0E027C08F5F8093F6
S11308F0930423C0CC2319F0C130C1F01EC061EAB7
S113090074E080E990E00E9481028091A10481302A
S113091089F480919A0490919B04009769F022E0F5
S11309202093A0040E942008C1E007C00E947B021B
S1130930C0E003C0C1E001C0C1E086E490E00E94D1
S1130940BC096ECF8091A004823061F51092A1049D
S11309508091A204882319F0813071F023C081E0D2
S11309600E943D0281E090E00E94BC090E9459026D
S113097081E08093A20416C061EA74E088E990E003
S11309800E9481028091A104813019F483E0809354
S1130990A00481E090E00E94BC090E947B0281E0F7
S11309A08093A2048091A004833041F56EE974E041
S11309B080E090E00E94690020919E0430919F04A1
S11309C0A8E8B3E10E946D0ADC01CB01072E7AE0AE
S11309D0B695A795979587957A95D1F7702D9093AD
S11309E09F0480939E040E94A70281E090E00E94ED
S11309F0BC091092A20482E08093A00480E590E0F8
S1130A000E94BC099FCF0E949D010E945300A12C0B
S1130A10B12CC12CD12C0F2EFCE9EF2EF4E0FF2ECB
S1130A20F02D03E020E030E046E950E060E070E0C3
S1130A3085EA93E00E946207E12CF12C01E020E0BA
S1130A4030E048EC50E060E070E082EA94E00E941C
S1130A5062070F2EFAE9EF2EF4E0FF2EF02D02E0EC
S1130A6020E030E04EE551E060E070E08FE094E09B
S1130A700E9462070E946B08FFCF1BBC8CE78ABDF3
S1130A808BE08EBD89B7806189BF089531E1FC0197
S1130A903083319722E220833197A3E3A0833197F7
S1130AA060833197708331971082319760E8608357
S1130AB031971082319762E06083319763E06083FD
S1130AC0319764E06083319765E06083319766E035
S1130AD06083319767E06083319768E06083319782
S1130AE069E06083319760E16083319730833197A7
S1130AF032E13083319733E13083319734E130830D
S1130B00319735E13083319736E13083319737E1DE
S1130B103083319738E13083319739E1308331972D
S1130B2030E23083319731E230833197208331973B
S1130B3023E220833197408331975083319726E213
S1130B402083319727E22083319728E2208331974D
S1130B5029E22083319720E32083319721E3208306
S1130B60869708950E943D05A0910405B09105055E
S1130B70CD91CDBFDD91DEBFFF91EF91DF91CF919C
S1130B80BF91AF919F918F917F916F915F914F91A1
S1130B903F912F911F910F91FF90EF90DF90CF9095
S1130BA0BF90AF909F908F907F906F905F904F9089
S1130BB03F902F901F900F900FBE0F90089581E0EB
S1130BC008950F920FB6F8940F921F9211242F924A
S1130BD03F924F925F926F927F928F929F92AF92C9
S1130BE0BF92CF92DF92EF92FF920F931F932F93B6
S1130BF03F934F935F936F937F938F939F93AF93A1
S1130C00BF93CF93DF93EF93FF93A0910405B0912B
S1130C1005050DB60D920EB60D920E940E0AA09116
S1130C200405B0910505CD91CDBFDD91DEBFFF91E7
S1130C30EF91DF91CF91BF91AF919F918F917F9170
S1130C406F915F914F913F912F911F910F91FF9061
S1130C50EF90DF90CF90BF90AF909F908F907F9058
S1130C606F905F904F903F902F901F900F900FBE0A
S1130C700F9008950F920FB6F8940F921F921124BB
S1130C802F923F924F925F926F927F928F929F9298
S1130C90AF92BF92CF92DF92EF92FF920F931F9386
S1130CA02F933F934F935F936F937F938F939F9370
S1130CB0AF93BF93CF93DF93EF93FF93A09104057A
S1130CC0B09105050DB60D920EB60D920E949C08CA
S1130CD00E940E0AA0910405B0910505CD91CDBFE7
S1130CE0DD91DEBFFF91EF91DF91CF91BF91AF9185
S1130CF09F918F917F916F915F914F913F912F9130
S1130D001F910F91FF90EF90DF90CF90BF90AF9025
S1130D109F908F907F906F905F904F903F902F9017
S1130D201F900F900FBE0F9008950E943A061895D9
S1130D30CF93DF93EC018F89988D0E94CF01CE0170
S1130D400E94CF01DF91CF910895EF92FF920F930C
S1130D501F93CF93DF937C01EB0181E290E00E942B
S1130D60A9018C01892BB9F0209721F4C7010E94B5
S1130D70A90101C0CE01F801908F878B009731F44F
S1130D80C8010E94CF0100E010E005C0A70165EA98
S1130D9070E00E947C0AC801DF91CF911F910F91EE
S1130DA0FF90EF9008951F93CF93DF93EC01142FDE
S1130DB048E050E049960E94830A18A2153008F0D2
S1130DC014E01E8BCE0102960E942303CE010C96E2
S1130DD00E942303D987C88785E090E0811B91098D
S1130DE09D878C87DB8BCA8BDF91CF911F910895F0
S1130DF0CF93C0E010C08C2F90E09C01220F331FD2
S1130E00220F331F220F331F820F931F89529B4FD0
S1130E100E941503CF5FC53070F38EEC94E00E94FE
S1130E20150385EC94E00E94150388EB94E00E947E
S1130E3015038FEA94E00E9415038EEC94E09093DE
S1130E40C4048093C30485EC94E09093C20480931B
S1130E50C104CF910895CF93DF93EC01E091040591
S1130E60F0910505938382838091AB049091AC0447
S1130E70C817D90768F4609104057091050580913D
S1130E80C1049091C2046E5F7F4F0E944E0317C04D
S1130E9060910405709105058091C3049091C40488
S1130EA06E5F7F4F0E944E038091600090916100BD
S1130EB0C817D90720F4D0936100C0936000DF9174
S1130EC0CF9108952F923F924F925F927F928F928B
S1130ED09F92AF92BF92CF92DF92EF92FF920F93C5
S1130EE01F93CF93DF9300D000D0CDB7DEB79A83A2
S1130EF089834B015C834B831901702EB601250154
S1130F00CA010E94A5065C01009709F470C0FC01A7
S1130F10C788D08C8B819C810197C80ED91E0B8108
S1130F201C819201472DB401C5010E94D306A10181
S1130F3069817A81C6010E944605F5019183808307
S1130F40E114F10419F0F701B182A0820FB6F8940C
S1130F500F928091AD048F5F8093AD04809104055E
S1130F6090910505892B59F4B0920505A0920405CA
S1130F708091AD04813091F40E94F8060FC08091F5
S1130F80A80481110BC0E0910405F0910505868940
S1130F90781620F0B0920505A0920405F501868923
S1130FA09091AA04981710F48093AA049091A30432
S1130FB09F5F9093A3049091A904981710F48093D1
S1130FC0A90490E0B5016E5F7F4F9C01220F331F8F
S1130FD0220F331F220F331F820F931F89529B4FFF
S1130FE00E9427030F900FBEF1E0F98302C08FEF38
S1130FF08983E981E13069F48091A804882349F068
S1131000E0910405F09105058689871510F40E9486
S1131010E10589810F900F900F900F90DF91CF9190
S11310201F910F91FF90EF90DF90CF90BF90AF9002
S11310309F908F907F905F904F903F902F90089556
S1131040EF92FF920F931F93CF93DF93EC010FB6B0
S1131050F8940F9280910405909105058C179D07D3
S113106011F4C0E0D0E0209729F400910405109118
S1131070050501C08E01780182E0E80EF11CC7016C
S11310800E947F03F80184899589892B21F0C80186
S11310900C960E947F03B7018FEA94E00E94270315
S11310A08091AE048F5F8093AE048091A3048F5F20
S11310B08093A3040F900FBE8091A804882321F08D
S11310C0CD2B11F40E94E105DF91CF911F910F9177
S11310D0FF90EF900895AF92BF92CF92DF92EF927C
S11310E0FF920F93A12CB12CC12CD12CE12CF12C0B
S11310F000E020E030E045E550E063EA70E08BE09A
S11311009AE00E946207813049F4F8948093A8041D
S11311101092AC041092AB040E94B2050F91FF90A0
S1131120EF90DF90CF90BF90AF9008958091A70487
S11311308F5F8093A70408950F931F93CF93DF933A
S11311408091A704811198C08091AB049091AC0464
S113115001969093AC048093AB048091AB0490917E
S1131160AC04892B99F58091C3049091C404209117
S1131170C1043091C2043093C4042093C3049093F7
S1131180C2048093C1048091A4048F5F8093A4045B
S1131190E091C304F091C4048081811107C08FEFF2
S11311A09FEF909361008093600010C0E091C304AE
S11311B0F091C4040580F681E02D0680F781E02DCE
S11311C08281938190936100809360002091AB04AD
S11311D03091AC0480916000909161002817390728
S11311E008F44FC0E091C304F091C40480818111DC
S11311F007C08FEF9FEF909361008093600041C020
S1131200E091C304F091C4040580F681E02DC68109
S1131210D7818A819B812091AB043091AC0428173B
S1131220390728F490936100809360002AC08E01EE
S11312300E5F1F4FC8010E947F038C899D89892BF3
S113124021F0CE010C960E947F038E899091A9040F
S1131250981710F48093A90490E09C01220F331F87
S1131260220F331F220F331F820F931FB80189529D
S11312709B4F0E942703B6CF8091A6048F5F809373
S1131280A604DF91CF911F910F910895FF920F93C0
S11312901F93CF93DF930FB6F8940F928091A70416
S11312A081508093A7048091A70481115AC0809132
S11312B0AD04811132C058C0E091BD04F091BE0468
S11312C0C681D781CE010C960E947F038E010E5FEA
S11312D01F4FC8010E947F038E899091A90498171B
S11312E010F48093A90490E09C01220F331F220F75
S11312F0331F220F331F820F931FB80189529B4F54
S11313000E9427039E89E0910405F09105058689D2
S1131310981720F0FF24F39401C0F12C8091B804B5
S11313208111CACF8091A604811108C00DC00E940A
S11313309C088091A60481508093A6048091A60401
S11313408111F5CFFF24F39481E0F81621F0809108
S1131350A504813041F41092A5040E94E10581E0C6
S113136003C080E001C080E00F900FBEDF91CF91F9
S11313701F910F91FF900895CF93DF93EC01892B78
S1131380A9F00E9496088091AB049091AC04C80F18
S1131390D91F809104059091050502960E947F0350
S11313A0CE010E942B070E94460901C080E08111F2
S11313B002C00E94E105DF91CF910895CF93DF939E
S11313C08091AE04882321F10E949608C091AF0455
S11313D00E944609CC23E1F00FB6F8940F92E091F5
S11313E0B404F091B504C681D781CE0102960E945F
S11313F07F038091AD0481508093AD048091AE044D
S113140081508093AE040F900FBECE010E949806C7
S1131410DF91CF9108950E94DE09FDCF8091A7044A
S1131420882349F081E08093A50408958091A9045C
S113143081508093A9048091A90490E0FC01EE0FEF
S1131440FF1FEE0FFF1FEE0FFF1F8E0F9F1FFC01EC
S1131450E952FB4F8081882349F38091A90490E0ED
S11314609C01220F331F220F331F220F331F280F1B
S1131470391FD901A952BB4F1196ED91FC911297D6
S11314800280F381E02D1296FC93EE93119726527D
S11314903B4FE217F30729F422813381FD013283A4
S11314A02183FC01EE0FFF1FEE0FFF1FEE0FFF1F46
S11314B08E0F9F1FFC01E952FB4F0180F281E02D4A
S11314C08681978190930505809304050895EE0F16
S11314D0FF1F0590F491E02D0994A29FB001B39FE2
S11314E0C001A39F700D811D1124911DB29F700D29
S11314F0811D1124911D0895DC0101C06D9341509B
S11315005040E0F70895FB01DC014150504048F0A1
S113151001900D920020C9F701C01D924150504026
S10B1520E0F70895F894FFCFF1
S1131528FFFF00010203040506073132332B34356B
S1131538362D3738392A303D2F2570617373776F0C
S113154872643D200077726F6E6720706173730058
S1131558434F52524543540054454D503D200031A9
S10B156832333449444C4500C0
S9030000FC
